{
  "_format": "hh3-artifact-1",
  "contractName": "InferToken",
  "sourceName": "contracts/InferToken.sol",
  "abi": [
    {
      "inputs": [],
      "stateMutability": "nonpayable",
      "type": "constructor"
    },
    {
      "inputs": [
        {
          "internalType": "address",
          "name": "spender",
          "type": "address"
        },
        {
          "internalType": "uint256",
          "name": "allowance",
          "type": "uint256"
        },
        {
          "internalType": "uint256",
          "name": "needed",
          "type": "uint256"
        }
      ],
      "name": "ERC20InsufficientAllowance",
      "type": "error"
    },
    {
      "inputs": [
        {
          "internalType": "address",
          "name": "sender",
          "type": "address"
        },
        {
          "internalType": "uint256",
          "name": "balance",
          "type": "uint256"
        },
        {
          "internalType": "uint256",
          "name": "needed",
          "type": "uint256"
        }
      ],
      "name": "ERC20InsufficientBalance",
      "type": "error"
    },
    {
      "inputs": [
        {
          "internalType": "address",
          "name": "approver",
          "type": "address"
        }
      ],
      "name": "ERC20InvalidApprover",
      "type": "error"
    },
    {
      "inputs": [
        {
          "internalType": "address",
          "name": "receiver",
          "type": "address"
        }
      ],
      "name": "ERC20InvalidReceiver",
      "type": "error"
    },
    {
      "inputs": [
        {
          "internalType": "address",
          "name": "sender",
          "type": "address"
        }
      ],
      "name": "ERC20InvalidSender",
      "type": "error"
    },
    {
      "inputs": [
        {
          "internalType": "address",
          "name": "spender",
          "type": "address"
        }
      ],
      "name": "ERC20InvalidSpender",
      "type": "error"
    },
    {
      "inputs": [
        {
          "internalType": "address",
          "name": "owner",
          "type": "address"
        }
      ],
      "name": "OwnableInvalidOwner",
      "type": "error"
    },
    {
      "inputs": [
        {
          "internalType": "address",
          "name": "account",
          "type": "address"
        }
      ],
      "name": "OwnableUnauthorizedAccount",
      "type": "error"
    },
    {
      "anonymous": false,
      "inputs": [
        {
          "indexed": true,
          "internalType": "address",
          "name": "owner",
          "type": "address"
        },
        {
          "indexed": true,
          "internalType": "address",
          "name": "spender",
          "type": "address"
        },
        {
          "indexed": false,
          "internalType": "uint256",
          "name": "value",
          "type": "uint256"
        }
      ],
      "name": "Approval",
      "type": "event"
    },
    {
      "anonymous": false,
      "inputs": [
        {
          "indexed": true,
          "internalType": "address",
          "name": "buyer",
          "type": "address"
        },
        {
          "indexed": false,
          "internalType": "uint256",
          "name": "amount",
          "type": "uint256"
        },
        {
          "indexed": false,
          "internalType": "uint256",
          "name": "discount",
          "type": "uint256"
        }
      ],
      "name": "BulkPurchase",
      "type": "event"
    },
    {
      "anonymous": false,
      "inputs": [
        {
          "indexed": true,
          "internalType": "address",
          "name": "enterprise",
          "type": "address"
        }
      ],
      "name": "EnterpriseLicenseGranted",
      "type": "event"
    },
    {
      "anonymous": false,
      "inputs": [
        {
          "indexed": true,
          "internalType": "address",
          "name": "previousOwner",
          "type": "address"
        },
        {
          "indexed": true,
          "internalType": "address",
          "name": "newOwner",
          "type": "address"
        }
      ],
      "name": "OwnershipTransferred",
      "type": "event"
    },
    {
      "anonymous": false,
      "inputs": [
        {
          "indexed": true,
          "internalType": "address",
          "name": "from",
          "type": "address"
        },
        {
          "indexed": true,
          "internalType": "address",
          "name": "to",
          "type": "address"
        },
        {
          "indexed": false,
          "internalType": "uint256",
          "name": "value",
          "type": "uint256"
        }
      ],
      "name": "Transfer",
      "type": "event"
    },
    {
      "inputs": [],
      "name": "BULK_DISCOUNT_PERCENT",
      "outputs": [
        {
          "internalType": "uint256",
          "name": "",
          "type": "uint256"
        }
      ],
      "stateMutability": "view",
      "type": "function"
    },
    {
      "inputs": [],
      "name": "BULK_DISCOUNT_THRESHOLD",
      "outputs": [
        {
          "internalType": "uint256",
          "name": "",
          "type": "uint256"
        }
      ],
      "stateMutability": "view",
      "type": "function"
    },
    {
      "inputs": [],
      "name": "INITIAL_SUPPLY",
      "outputs": [
        {
          "internalType": "uint256",
          "name": "",
          "type": "uint256"
        }
      ],
      "stateMutability": "view",
      "type": "function"
    },
    {
      "inputs": [
        {
          "internalType": "address",
          "name": "owner",
          "type": "address"
        },
        {
          "internalType": "address",
          "name": "spender",
          "type": "address"
        }
      ],
      "name": "allowance",
      "outputs": [
        {
          "internalType": "uint256",
          "name": "",
          "type": "uint256"
        }
      ],
      "stateMutability": "view",
      "type": "function"
    },
    {
      "inputs": [
        {
          "internalType": "address",
          "name": "spender",
          "type": "address"
        },
        {
          "internalType": "uint256",
          "name": "value",
          "type": "uint256"
        }
      ],
      "name": "approve",
      "outputs": [
        {
          "internalType": "bool",
          "name": "",
          "type": "bool"
        }
      ],
      "stateMutability": "nonpayable",
      "type": "function"
    },
    {
      "inputs": [
        {
          "internalType": "address",
          "name": "account",
          "type": "address"
        }
      ],
      "name": "balanceOf",
      "outputs": [
        {
          "internalType": "uint256",
          "name": "",
          "type": "uint256"
        }
      ],
      "stateMutability": "view",
      "type": "function"
    },
    {
      "inputs": [
        {
          "internalType": "uint256",
          "name": "_amount",
          "type": "uint256"
        }
      ],
      "name": "burn",
      "outputs": [],
      "stateMutability": "nonpayable",
      "type": "function"
    },
    {
      "inputs": [],
      "name": "decimals",
      "outputs": [
        {
          "internalType": "uint8",
          "name": "",
          "type": "uint8"
        }
      ],
      "stateMutability": "view",
      "type": "function"
    },
    {
      "inputs": [
        {
          "internalType": "address",
          "name": "_enterprise",
          "type": "address"
        }
      ],
      "name": "grantEnterpriseLicense",
      "outputs": [],
      "stateMutability": "nonpayable",
      "type": "function"
    },
    {
      "inputs": [
        {
          "internalType": "address",
          "name": "",
          "type": "address"
        }
      ],
      "name": "isEnterprise",
      "outputs": [
        {
          "internalType": "bool",
          "name": "",
          "type": "bool"
        }
      ],
      "stateMutability": "view",
      "type": "function"
    },
    {
      "inputs": [
        {
          "internalType": "address",
          "name": "_to",
          "type": "address"
        },
        {
          "internalType": "uint256",
          "name": "_amount",
          "type": "uint256"
        }
      ],
      "name": "mint",
      "outputs": [],
      "stateMutability": "nonpayable",
      "type": "function"
    },
    {
      "inputs": [],
      "name": "name",
      "outputs": [
        {
          "internalType": "string",
          "name": "",
          "type": "string"
        }
      ],
      "stateMutability": "view",
      "type": "function"
    },
    {
      "inputs": [],
      "name": "owner",
      "outputs": [
        {
          "internalType": "address",
          "name": "",
          "type": "address"
        }
      ],
      "stateMutability": "view",
      "type": "function"
    },
    {
      "inputs": [
        {
          "internalType": "uint256",
          "name": "_amount",
          "type": "uint256"
        }
      ],
      "name": "purchaseTokens",
      "outputs": [],
      "stateMutability": "payable",
      "type": "function"
    },
    {
      "inputs": [],
      "name": "renounceOwnership",
      "outputs": [],
      "stateMutability": "nonpayable",
      "type": "function"
    },
    {
      "inputs": [],
      "name": "symbol",
      "outputs": [
        {
          "internalType": "string",
          "name": "",
          "type": "string"
        }
      ],
      "stateMutability": "view",
      "type": "function"
    },
    {
      "inputs": [],
      "name": "totalSupply",
      "outputs": [
        {
          "internalType": "uint256",
          "name": "",
          "type": "uint256"
        }
      ],
      "stateMutability": "view",
      "type": "function"
    },
    {
      "inputs": [
        {
          "internalType": "address",
          "name": "to",
          "type": "address"
        },
        {
          "internalType": "uint256",
          "name": "value",
          "type": "uint256"
        }
      ],
      "name": "transfer",
      "outputs": [
        {
          "internalType": "bool",
          "name": "",
          "type": "bool"
        }
      ],
      "stateMutability": "nonpayable",
      "type": "function"
    },
    {
      "inputs": [
        {
          "internalType": "address",
          "name": "from",
          "type": "address"
        },
        {
          "internalType": "address",
          "name": "to",
          "type": "address"
        },
        {
          "internalType": "uint256",
          "name": "value",
          "type": "uint256"
        }
      ],
      "name": "transferFrom",
      "outputs": [
        {
          "internalType": "bool",
          "name": "",
          "type": "bool"
        }
      ],
      "stateMutability": "nonpayable",
      "type": "function"
    },
    {
      "inputs": [
        {
          "internalType": "address",
          "name": "newOwner",
          "type": "address"
        }
      ],
      "name": "transferOwnership",
      "outputs": [],
      "stateMutability": "nonpayable",
      "type": "function"
    },
    {
      "inputs": [],
      "name": "withdrawETH",
      "outputs": [],
      "stateMutability": "nonpayable",
      "type": "function"
    }
  ],
  "bytecode": "0x608060405234801561000f575f80fd5b50336040518060400160405280600a81526020016924b73332b92a37b5b2b760b11b8152506040518060400160405280600581526020016424a72322a960d91b8152508160039081610061919061030b565b50600461006e828261030b565b5050506001600160a01b03811661009f57604051631e4fbdf760e01b81525f60048201526024015b60405180910390fd5b6100a8816100c4565b506100bf336b033b2e3c9fd0803ce8000000610115565b6103ea565b600580546001600160a01b038381166001600160a01b0319831681179093556040519116919082907f8be0079c531659141344cd1fd0a4f28419497f9722a3daafe3b4186f6b6457e0905f90a35050565b6001600160a01b03821661013e5760405163ec442f0560e01b81525f6004820152602401610096565b6101495f838361014d565b5050565b6001600160a01b038316610177578060025f82825461016c91906103c5565b909155506101e79050565b6001600160a01b0383165f90815260208190526040902054818110156101c95760405163391434e360e21b81526001600160a01b03851660048201526024810182905260448101839052606401610096565b6001600160a01b0384165f9081526020819052604090209082900390555b6001600160a01b03821661020357600280548290039055610221565b6001600160a01b0382165f9081526020819052604090208054820190555b816001600160a01b0316836001600160a01b03167fddf252ad1be2c89b69c2b068fc378daa952ba7f163c4a11628f55a4df523b3ef8360405161026691815260200190565b60405180910390a3505050565b634e487b7160e01b5f52604160045260245ffd5b600181811c9082168061029b57607f821691505b6020821081036102b957634e487b7160e01b5f52602260045260245ffd5b50919050565b601f82111561030657805f5260205f20601f840160051c810160208510156102e45750805b601f840160051c820191505b81811015610303575f81556001016102f0565b50505b505050565b81516001600160401b0381111561032457610324610273565b610338816103328454610287565b846102bf565b6020601f82116001811461036a575f83156103535750848201515b5f19600385901b1c1916600184901b178455610303565b5f84815260208120601f198516915b828110156103995787850151825560209485019460019092019101610379565b50848210156103b657868401515f19600387901b60f8161c191681555b50505050600190811b01905550565b808201808211156103e457634e487b7160e01b5f52601160045260245ffd5b92915050565b610c90806103f75f395ff3fe608060405260043610610126575f3560e01c80635fa25737116100a85780638da5cb5b1161006d5780638da5cb5b1461031357806395d89b411461033a578063a9059cbb1461034e578063dd62ed3e1461036d578063e086e5ec146103b1578063f2fde38b146103c5575f80fd5b80635fa2573714610287578063672cca67146102a457806370a08231146102b8578063715018a6146102ec5780637b97008d14610300575f80fd5b80632ff2e9dc116100ee5780632ff2e9dc146101e1578063313ce5671461020057806340c10f191461021b57806342966c681461023a5780634f022b1c14610259575f80fd5b806306fdde031461012a578063071f32df14610154578063095ea7b31461017557806318160ddd146101a457806323b872dd146101c2575b5f80fd5b348015610135575f80fd5b5061013e6103e4565b60405161014b9190610a98565b60405180910390f35b34801561015f575f80fd5b5061017361016e366004610ae8565b610474565b005b348015610180575f80fd5b5061019461018f366004610b08565b6104c7565b604051901515815260200161014b565b3480156101af575f80fd5b506002545b60405190815260200161014b565b3480156101cd575f80fd5b506101946101dc366004610b30565b6104e0565b3480156101ec575f80fd5b506101b46b033b2e3c9fd0803ce800000081565b34801561020b575f80fd5b506040516012815260200161014b565b348015610226575f80fd5b50610173610235366004610b08565b610503565b348015610245575f80fd5b50610173610254366004610b6a565b610519565b348015610264575f80fd5b50610194610273366004610ae8565b60066020525f908152604090205460ff1681565b348015610292575f80fd5b506101b469152d02c7e14af680000081565b3480156102af575f80fd5b506101b4600a81565b3480156102c3575f80fd5b506101b46102d2366004610ae8565b6001600160a01b03165f9081526020819052604090205490565b3480156102f7575f80fd5b50610173610526565b61017361030e366004610b6a565b610539565b34801561031e575f80fd5b506005546040516001600160a01b03909116815260200161014b565b348015610345575f80fd5b5061013e610646565b348015610359575f80fd5b50610194610368366004610b08565b610655565b348015610378575f80fd5b506101b4610387366004610b81565b6001600160a01b039182165f90815260016020908152604080832093909416825291909152205490565b3480156103bc575f80fd5b50610173610662565b3480156103d0575f80fd5b506101736103df366004610ae8565b6106a0565b6060600380546103f390610bb2565b80601f016020809104026020016040519081016040528092919081815260200182805461041f90610bb2565b801561046a5780601f106104415761010080835404028352916020019161046a565b820191905f5260205f20905b81548152906001019060200180831161044d57829003601f168201915b5050505050905090565b61047c6106da565b6001600160a01b0381165f81815260066020526040808220805460ff19166001179055517f2a2fd35e2da7554e636a4ec69a67231a79ec55edda8297928a976a3ba337f41b9190a250565b5f336104d4818585610707565b60019150505b92915050565b5f336104ed858285610714565b6104f885858561078a565b506001949350505050565b61050b6106da565b61051582826107e7565b5050565b610523338261081b565b50565b61052e6106da565b6105375f61084f565b565b805f69152d02c7e14af680000082106105ae576064610559600a85610bfe565b6105639190610c15565b905061056f8184610c34565b604080518581526020810184905291935033917f38b9cebd18a7b75072091f98068319dcab8743fdfc22e18a1d759afbd8cddd06910160405180910390a25b813410156105fa5760405162461bcd60e51b8152602060048201526014602482015273125b9cdd59999a58da595b9d081c185e5b595b9d60621b60448201526064015b60405180910390fd5b61060433846107e7565b8134111561064157336108fc61061a8434610c34565b6040518115909202915f818181858888f1935050505015801561063f573d5f803e3d5ffd5b505b505050565b6060600480546103f390610bb2565b5f336104d481858561078a565b61066a6106da565b6005546040516001600160a01b03909116904780156108fc02915f818181858888f19350505050158015610523573d5f803e3d5ffd5b6106a86106da565b6001600160a01b0381166106d157604051631e4fbdf760e01b81525f60048201526024016105f1565b6105238161084f565b6005546001600160a01b031633146105375760405163118cdaa760e01b81523360048201526024016105f1565b61064183838360016108a0565b6001600160a01b038381165f908152600160209081526040808320938616835292905220545f1981101561063f578181101561077c57604051637dc7a0d960e11b81526001600160a01b038416600482015260248101829052604481018390526064016105f1565b61063f84848484035f6108a0565b6001600160a01b0383166107b357604051634b637e8f60e11b81525f60048201526024016105f1565b6001600160a01b0382166107dc5760405163ec442f0560e01b81525f60048201526024016105f1565b610641838383610972565b6001600160a01b0382166108105760405163ec442f0560e01b81525f60048201526024016105f1565b6105155f8383610972565b6001600160a01b03821661084457604051634b637e8f60e11b81525f60048201526024016105f1565b610515825f83610972565b600580546001600160a01b038381166001600160a01b0319831681179093556040519116919082907f8be0079c531659141344cd1fd0a4f28419497f9722a3daafe3b4186f6b6457e0905f90a35050565b6001600160a01b0384166108c95760405163e602df0560e01b81525f60048201526024016105f1565b6001600160a01b0383166108f257604051634a1406b160e11b81525f60048201526024016105f1565b6001600160a01b038085165f908152600160209081526040808320938716835292905220829055801561063f57826001600160a01b0316846001600160a01b03167f8c5be1e5ebec7d5bd14f71427d1e84f3dd0314c0f7b2291e5b200ac8c7c3b9258460405161096491815260200190565b60405180910390a350505050565b6001600160a01b03831661099c578060025f8282546109919190610c47565b90915550610a0c9050565b6001600160a01b0383165f90815260208190526040902054818110156109ee5760405163391434e360e21b81526001600160a01b038516600482015260248101829052604481018390526064016105f1565b6001600160a01b0384165f9081526020819052604090209082900390555b6001600160a01b038216610a2857600280548290039055610a46565b6001600160a01b0382165f9081526020819052604090208054820190555b816001600160a01b0316836001600160a01b03167fddf252ad1be2c89b69c2b068fc378daa952ba7f163c4a11628f55a4df523b3ef83604051610a8b91815260200190565b60405180910390a3505050565b602081525f82518060208401528060208501604085015e5f604082850101526040601f19601f83011684010191505092915050565b80356001600160a01b0381168114610ae3575f80fd5b919050565b5f60208284031215610af8575f80fd5b610b0182610acd565b9392505050565b5f8060408385031215610b19575f80fd5b610b2283610acd565b946020939093013593505050565b5f805f60608486031215610b42575f80fd5b610b4b84610acd565b9250610b5960208501610acd565b929592945050506040919091013590565b5f60208284031215610b7a575f80fd5b5035919050565b5f8060408385031215610b92575f80fd5b610b9b83610acd565b9150610ba960208401610acd565b90509250929050565b600181811c90821680610bc657607f821691505b602082108103610be457634e487b7160e01b5f52602260045260245ffd5b50919050565b634e487b7160e01b5f52601160045260245ffd5b80820281158282048414176104da576104da610bea565b5f82610c2f57634e487b7160e01b5f52601260045260245ffd5b500490565b818103818111156104da576104da610bea565b808201808211156104da576104da610bea56fea2646970667358221220993dec48e2974cf7346e120fa26ac1ddd982443af533f9e6bb87d33308aa12f064736f6c634300081a0033",
  "linkReferences": {},
  "deployedLinkReferences": {},
  "immutableReferences": {},
  "inputSourceName": "project/contracts/InferToken.sol",
  "buildInfoId": "solc-0_8_26-c18343b9800b70f4ccd0736a1adf3a1e5b0a42f8"
}